S00C00004B6172742E7372656386
S11300000C946C000C946C010C9493010C94BA0144
S11300100C941D020C9480020C9494000C94940093
S11300200C9494000C9494000C9494000C949400FC
S11300300C9494000C9494000C9494000C949400EC
S11300400C94DD0B0C9494000C9451090C948309CA
S11300500C9494000C9494000C9494000C949400CC
S11300600C9494000C949400000102030405060708
S11300700001020304050001020304050000000856
S1130080000201000003040700000000000000005B
S1130090010204081020408001020408102001021B
S11300A004081020040404040404040402020202E8
S11300B002020303030303030000000023002600DD
S11300C0290000000000250028002B00000000008B
S11300D0240027002A00B30911241FBECFEFD8E063
S11300E0DEBFCDBF12E0A0E0B1E0E4EEFBE102C070
S11300F005900D92A635B107D9F723E0A6E5B2E045
S113010001C01D92A837B207E1F710E0CCE6D0E0B9
S113011004C02197FE010E94EA0DCB36D107C9F72E
S11301200E94E1090C94F00D0C940000EBE8F2E05D
S113013083818F5F83830895E82FEF7787FD05C060
S11301408EEF8E0F823008F49AC08E2F90E0FC015F
S1130150E057FF4F2491FC01EC55FF4F3491542F8D
S11301605D7F5130B9F4323031F45091A302522BF7
S11301705093A3020FC0333031F45091A002522B9C
S11301805093A00207C0343029F450919D02522BA1
S113019050939D0241504230B8F4323031F44091D2
S11301A0A202422B4093A2020FC0333031F440919B
S11301B09F02422B40939F0207C0343029F44091A0
S11301C09C02422B40939C02FC01E859FF4FA491EE
S11301D03230C1F4B0E0AA0FBB1FA054BD4F6D93E1
S11301E07C93ECEBF0E0A591B4918C918093A10207
S11301F08BE690E09093D1028093D00280916800C6
S1130200816033C03330C1F4B0E0AA0FBB1FAC54DB
S1130210BD4F6D937C93EEEBF0E0A591B4918C917E
S113022080939E028CE690E09093D1028093D0025A
S113023080916800826019C03430C9F4B0E0AA0F1C
S1130240BB1FAC55BD4F6D937C93E0ECF0E0A591E2
S1130250B4918C9180939B028DE690E09093D102AF
S11302608093D00280916800846080936800A0919C
S1130270D002B091D102EC912E2B2C9308959FB70C
S1130280F894E23099F47093CD026093CC02E8982C
S1130290809169008C7F8093690080916900482B6C
S11302A040936900E09AE89A9FBF08957093CF0243
S11302B06093CE02E99880916900837F80936900FE
S11302C08091690024E0429FA0011124482B4093AF
S11302D06900E19AE99AE8CF1F920F920FB60F9244
S11302E011242F933F934F935F936F937F938F9337
S11302F09F93AF93BF93EF93FF93E091CC02F09160
S1130300CD020995FF91EF91BF91AF919F918F918C
S11303107F916F915F914F913F912F910F900FBEFD
S11303200F901F9018951F920F920FB60F921124E1
S11303302F933F934F935F936F937F938F939F93E9
S1130340AF93BF93EF93FF93E091CE02F091CF026E
S11303500995FF91EF91BF91AF919F918F917F91FB
S11303606F915F914F913F912F910F900FBE0F901E
S11303701F9018951F920F920FB60F9211242F936E
S11303803F934F935F936F937F938F939F93AF9319
S1130390BF93CF93EF93FF9323B1C091A1028091B8
S11303A0A3029091A202322F309593238223892BAA
S11303B090916B00C227C923C8232093A102CC23A8
S11303C051F1C0FF05C0E091C002F091C10209954E
S11303D0C1FF05C0E091C202F091C3020995C2FFBA
S11303E005C0E091C402F091C5020995C3FF05C0A0
S11303F0E091C602F091C7020995C4FF05C0E091DF
S1130400C802F091C9020995C5FF05C0E091CA026E
S1130410F091CB020995FF91EF91CF91BF91AF91EC
S11304209F918F917F916F915F914F913F912F9108
S11304300F900FBE0F901F9018951F920F920FB63A
S11304400F9211242F933F934F935F936F937F9356
S11304508F939F93AF93BF93CF93EF93FF9326B163
S1130460C0919E028091A00290919F02322F3095FC
S113047093238223892B90916C00C227C923C8231C
S113048020939E02CC2351F1C0FF05C0E091B40239
S1130490F091B5020995C1FF05C0E091B602F09153
S11304A0B7020995C2FF05C0E091B802F091B90204
S11304B00995C3FF05C0E091BA02F091BB0209950A
S11304C0C4FF05C0E091BC02F091BD020995C5FFCF
S11304D005C0E091BE02F091BF020995FF91EF9132
S11304E0CF91BF91AF919F918F917F916F915F91C8
S11304F04F913F912F910F900FBE0F901F90189521
S11305001F920F920FB60F9211242F933F934F9384
S11305105F936F937F938F939F93AF93BF93CF9387
S1130520EF93FF9329B1C0919B0280919D0290911A
S11305309C02322F309593238223892B90916D0056
S1130540C227C923C82320939B02CC23C1F1C0FF37
S113055005C0E091A402F091A5020995C1FF05C070
S1130560E091A602F091A7020995C2FF05C0E091AF
S1130570A802F091A9020995C3FF05C0E091AA025F
S1130580F091AB020995C4FF05C0E091AC02F09173
S1130590AD020995C5FF05C0E091AE02F091AF022E
S11305A00995C6FF05C0E091B002F091B10209952A
S11305B0C7FF05C0E091B202F091B3020995FF9123
S11305C0EF91CF91BF91AF919F918F917F916F9157
S11305D05F914F913F912F910F900FBE0F901F90FD
S11305E0189526E040E855E260E070E082ED92E084
S11305F00E94EC0860E082E00E94130D43E066E98B
S113060070E082E00E949C0061E083E00E94130D90
S113061061E083E00E944F0D61E084E00E94130DCD
S113062061E084E00E944F0D61E08AE00E94130DB6
S113063061E089E00E94130D61E088E00E94130DDF
S113064061E085E00E94130D61E086E00E94130DD5
S11306506CEF70E085E00E948B0C6CEF70E086E03C
S11306600C948B0C1F93CF93DF93CBE8D2E01B81C8
S11306708981612F681B6A8370E080E090E00E94AA
S1130680F30626E636E646EE5FE30E94AA072DE26D
S113069032EB4DE55FE30E94AA070E94C40668831B
S11306A01983DF91CF911F9108957F928F929F922A
S11306B0AF92BF92CF92DF92EF92FF920F931F936C
S11306C0CF93DF93CBE5D2E000E010E0772473947E
S11306D0812C912C88ECA82E82E4B82E1A861B86D5
S11306E002301105B1F003301105D9F001301105C4
S11306F041F08FE00E946E0C90935C0280935B0249
S113070017C080E10E946E0C909368028093670288
S11307100FC081E10E946E0C909374028093730267
S113072007C081E10E946E0C9093800280937F0247
S11307306881798180E090E00E94F30620E030E057
S113074040EA50E40E94AA0720E030EC4FE754E46A
S11307500E9452066B017C016A837B838C839D8398
S113076027ED33EA40E95FE30E944D0687FF05C0A9
S11307707B861E821F821886198620E030E040ECBA
S11307805FE3C701B6010E94A50718162CF47A8608
S11307908E829F82A886B9868A8581111BC08B852B
S11307A0811118C027ED33EA40E95FE3C701B601C0
S11307B00E94E00524EA30E74DEB5EE30E94520616
S11307C020E030E048EC52E40E94AA076E837F8365
S11307D0888799870F5F1F4F2C960430110509F005
S11307E07DCF8090610290906202A0906302B090ED
S11307F06402C0906D02D0906E02E0906F02F0909F
S11308007002A7019601C501B4010E944D0687FF3D
S113081003C0C501B40102C0C701B6010E94C406E9
S1130820C62FC0907902D0907A02E0907B02F090BB
S11308307C0270E080E090E00E94F506A70196013A
S11308400E944D0687FD05C0C701B6010E94C4067B
S1130850C62FC0908502D0908602E0908702F09067
S113086088026C2F70E080E090E00E94F506A701FA
S113087096010E944D0687FD05C0C701B6010E947E
S1130880C406C62FC0935A02DF91CF911F910F91D6
S1130890FF90EF90DF90CF90BF90AF909F908F909C
S11308A07F90089583E10E946E0CBC01990F880B20
S11308B0990B0E94F50620E030E048EC52E40E94D7
S11308C0AA0720E030EC4FE754E40E9452060E944D
S11308D0C40660938B0283E10E946E0CBC01990FE5
S11308E0880B990B0E94F50620E030E048EC52E4B6
S11308F00E94AA0720E030EC4FE754E40E9452061D
S11309000E94C40660935A02089520918B022436F3
S113091020F08FE6809356021EC0822F6AE00E9468
S1130920BC0DE92FF0E0EB5DFD4F80818093560212
S1130930622F70E080E090E00E94F50620E030E055
S113094040E251E40E9452060E94C406E62FF0E001
S1130950EB5DFD4F80818093570280915A026AE0DB
S11309600E94BC0DE82FF0E0EE0FFF1FE15FFD4F8A
S11309708081918190935902809358020895CF9376
S1130980DF93C6E5D2E02B8141E069E088E00E9474
S11309907E0D2A8141E069E088E00E947E0D288175
S11309A041E069E088E00E947E0D298141E069E030
S11309B088E00E947E0D61E08AE00E944F0D60E0B5
S11309C08AE0DF91CF910C944F0D0F931F93CF9337
S11309D0DF9361E071E082ED92E00E943C0A64E200
S11309E071E082ED92E00E942F0A409197025091AB
S11309F098026091990270919A022AE030E082EDA7
S1130A0092E00E94970A6BE471E082ED92E00E940A
S1130A102F0A6DE471E082ED92E00E943C0A60E5E9
S1130A2071E082ED92E00E942F0A4AE050E060916A
S1130A308B0282ED92E00E94A40A6DE471E082EDE3
S1130A4092E00E943C0A64E671E082ED92E00E942A
S1130A503C0ACBE5D2E000E010E068E771E082ED0B
S1130A6092E00E942F0A0F5F1F4F4AE050E0B80146
S1130A7082ED92E00E94F90A8B85882319F065E8DB
S1130A8071E005C08A85882321F16CEB71E082ED69
S1130A9092E00E943C0A2C9604301105F1F66EEFA8
S1130AA071E082ED92E00E942F0A609158027091E9
S1130AB0590242E050E082ED92E00E94AB0A68E401
S1130AC072E082ED92E0DF91CF911F910F910C942F
S1130AD03C0A62EF71E082ED92E00E942F0A4E819F
S1130AE05F816885798522E030E082ED92E00E94A2
S1130AF0DB0B6BEF71E0CBCF0F931F930E94270C9E
S1130B0000919302109194022091950230919602E3
S1130B10DC01CB01801B910BA20BB30B893E9340EC
S1130B20A105B105E8F00E94270C6093930270932D
S1130B3094028093950290939602809197029091EB
S1130B409802A0919902B0919A020196A11DB11D3B
S1130B508093970290939802A0939902B0939A027B
S1130B600E94270C00918F02109190022091910213
S1130B7030919202DC01CB01801B910BA20BB30BD1
S1130B80893C9105A105B105C0F00E94270C609332
S1130B908F027093900280939102909392020E942C
S1130BA032030E9455030E9452040E9485040E944D
S1130BB0BF041F910F910C94E5041F910F910895A8
S1130BC05058BB27AA270E94F8050C946B070E9473
S1130BD05D0738F00E94640720F039F49F3F19F450
S1130BE026F40C945A070EF4E095E7FB0C94540792
S1130BF0E92F0E947C0758F3BA176207730784072A
S1130C00950720F079F4A6F50C949E070EF4E09570
S1130C100B2EBA2FA02D0B01B90190010C01CA01B2
S1130C20A0011124FF27591B99F0593F50F4503E5D
S1130C3068F11A16F040A22F232F342F4427585F4F
S1130C40F3CF469537952795A795F0405395C9F767
S1130C507EF41F16BA0B620B730B840BBAF091501F
S1130C60A1F0FF0FBB1F661F771F881FC2F70EC0BE
S1130C70BA0F621F731F841F48F487957795679591
S1130C80B795F7959E3F08F0B0CF9395880F08F07D
S1130C909927EE0F9795879508950E94300708F4D9
S1130CA081E008950E9466060C946B070E94640715
S1130CB058F00E945D0740F029F45F3F29F00C943E
S1130CC0540751110C949F070C945A070E947C07F7
S1130CD068F39923B1F3552391F3951B550BBB2767
S1130CE0AA2762177307840738F09F5F5F4F220FAC
S1130CF0331F441FAA1FA9F335D00E2E3AF0E0E8A3
S1130D0032D091505040E695001CCAF72BD0FE2FEC
S1130D1029D0660F771F881FBB1F26173707480780
S1130D20AB07B0E809F0BB0B802DBF01FF27935838
S1130D305F4F3AF09E3F510578F00C9454070C94A1
S1130D409F075F3FE4F3983ED4F3869577956795C4
S1130D50B795F7959F5FC9F7880F911D969587956D
S1130D6097F90895E1E0660F771F881FBB1F62178C
S1130D7073078407BA0720F0621B730B840BBA0B4A
S1130D80EE1F88F7E09508950E94840788F09F5726
S1130D9098F0B92F9927B751B0F0E1F0660F771F9B
S1130DA0881F991F1AF0BA95C9F714C0B13091F091
S1130DB00E949E07B1E008950C949E07672F782F38
S1130DC08827B85F39F0B93FCCF386957795679556
S1130DD0B395D9F73EF490958095709561957F4FC2
S1130DE08F4F9F4F0895E89409C097FB3EF4909568
S1130DF08095709561957F4F8F4F9F4F9923A9F0F0
S1130E00F92F96E9BB279395F6958795779567957E
S1130E10B795F111F8CFFAF4BB0F11F460FF1BC0C2
S1130E206F5F7F4F8F4F9F4F16C0882311F096E955
S1130E3011C0772321F09EE8872F762F05C0662303
S1130E4071F096E8862F70E060E02AF09A95660FBC
S1130E50771F881FDAF7880F9695879597F9089575
S1130E60990F0008550FAA0BE0E8FEEF16161706B7
S1130E70E807F907C0F012161306E407F50798F01F
S1130E80621B730B840B950B39F40A2661F0232B38
S1130E90242B252B21F408950A2609F4A140A695B4
S1130EA08FEF811D811D089597F99F6780E870E099
S1130EB060E008959FEF80EC089500240A941616CC
S1130EC0170618060906089500240A941216130634
S1130ED0140605060895092E0394000C11F48823C2
S1130EE052F0BB0F40F4BF2B11F460FF04C06F5FDE
S1130EF07F4F8F4F9F4F089557FD9058440F551FB4
S1130F0059F05F3F71F04795880F97FB991F61F087
S1130F109F3F79F087950895121613061406551FFE
S1130F20F2CF4695F1DF08C0161617061806991F6A
S1130F30F1CF86957105610508940895E894BB275F
S1130F4066277727CB0197F908950E94300708F4A4
S1130F508FEF08950E94BD070C946B070E945D07F4
S1130F6038F00E94640720F0952311F00C94540784
S1130F700C945A0711240C949F070E947C0770F369
S1130F80959FC1F3950F50E0551F629FF001729F2A
S1130F90BB27F00DB11D639FAA27F00DB11DAA1F39
S1130FA0649F6627B00DA11D661F829F2227B00D86
S1130FB0A11D621F739FB00DA11D621F839FA00D11
S1130FC0611D221F749F3327A00D611D231F849F61
S1130FD0600D211D822F762F6A2F11249F575040B8
S1130FE09AF0F1F088234AF0EE0FFF1FBB1F661F33
S1130FF0771F881F91505040A9F79E3F510580F0FC
S11310000C9454070C949F075F3FE4F3983ED4F389
S1131010869577956795B795F795E7959F5FC1F79F
S1131020FE2B880F911D9695879597F90895FC01DD
S1131030918D228D892F90E0805C9F4F821B9109B6
S11310408F7399270895FC01918D828D981731F043
S1131050828DE80FF11D858D90E008958FEF9FEF4D
S11310600895FC01918D828D981761F0828DDF01C6
S1131070A80FB11D5D968C91928D9F5F9F73928F87
S113108090E008958FEF9FEF0895FC01538D448DF8
S1131090252F30E0842F90E0821B930B541710F01F
S11310A0CF9608950197089589EA99E0892B49F02C
S11310B080E090E0892B29F00E94A90981110C9409
S11310C000000895FC01848DDF01A80FB11DA35A0F
S11310D0BF4F2C91848D90E001968F739927848F54
S11310E0A689B7892C93A089B1898C9180648C934B
S11310F0938D848D981306C00288F389E02D808136
S11311008F7D80830895EF92FF920F931F93CF9367
S1131110DF93EC0181E0888F9B8D8C8D981305C043
S1131120E889F989808185FD24C0F62E0B8D10E0B5
S11311300F5F1F4F0F731127E02E8C8DE8120CC028
S11311400FB607FCFACFE889F989808185FFF5CFCE
S1131150CE010E946208F1CF8B8DFE01E80FF11DD4
S1131160E35AFF4FF0820B8FEA89FB89808180620A
S113117007C0EE89FF896083E889F98980818064EA
S1131180808381E090E0DF91CF911F910F91FF90D8
S1131190EF900895CF93DF93EC01888D8823C9F0F5
S11311A0EA89FB89808185FD05C0A889B9898C916C
S11311B086FD0FC00FB607FCF5CF808185FFF2CF07
S11311C0A889B9898C9185FFEDCFCE010E94620870
S11311D0E7CFDF91CF910895CF92DF92EF92FF9204
S11311E01F93CF93DF93EC016A017B01122FE889EF
S11311F0F98982E080834115514E61057105B1F092
S113120060E079E08DE390E0A70196010E94C80DAB
S1131210DA01C9010197A109B109B695A795979576
S113122087959C01211580E13807A8F0E889F989A0
S1131230108260E874E88EE190E0A70196010E94B4
S1131240C80DDA01C9010197A109B109B695A7959D
S1131250979587959C01EC85FD853083EE85FF8508
S11312602083188EEC89FD891083EA89FB898081AB
S113127080618083EA89FB89808188608083EA8930
S1131280FB89808180688083EA89FB8980818F7DE6
S11312908083DF91CF911F91FF90EF90DF90CF90EB
S11312A008951F920F920FB60F9211242F938F93CC
S11312B09F93EF93FF93E091E202F091E302808128
S11312C0E091E802F091E90282FD12C090818091E0
S11312D0EB028F5F8F732091EC02821751F0E09143
S11312E0EB02F0E0EE52FD4F958F8093EB0201C0CC
S11312F08081FF91EF919F918F912F910F900FBE5D
S11313000F901F9018951F920F920FB60F921124F1
S11313102F933F934F935F936F937F938F939F93F9
S1131320AF93BF93EF93FF9382ED92E00E94620824
S1131330FF91EF91BF91AF919F918F917F916F91A9
S11313405F914F913F912F910F900FBE0F901F907F
S1131350189582ED92E00E94170821E0892B09F488
S113136020E0822F0895E2EDF2E01382128288EEEB
S113137093E0A0E0B0E084839583A683B78389E3F8
S113138092E09183808385EC90E09587848784EC58
S113139090E09787868780EC90E0918B808B81EC3E
S11313A090E0938B828B82EC90E0958B848B86EC1F
S11313B090E0978B868B118E128E138E148E089567
S11313C008950E94330C0E94E0090E94F102C4E5D2
S11313D0D8E00E947C052097E1F30E945408F9CFDD
S11313E0CF92DF92EF92FF920F931F93CF93DF93ED
S11313F06C017A018B01C0E0D0E0CE15DF0581F0ED
S1131400D8016D918D01D601ED91FC910190F0818F
S1131410E02DC6010995892B11F02196EECF7E01AE
S1131420C701DF91CF911F910F91FF90EF90DF9053
S1131430CF9008956115710579F0FB0101900020AA
S1131440E9F73197AF01461B570BDC01ED91FC9195
S11314500280F381E02D099480E090E008950C94DB
S11314601A0ADC01ED91FC910190F081E02D0994C0
S113147067E472E00C941A0A0F931F93CF93DF93DF
S1131480EC010E941A0A8C01CE010E94380A800FD6
S1131490911FDF91CF911F910F9108958F929F9289
S11314A0AF92BF92EF92FF920F931F93CF93DF936C
S11314B0CDB7DEB7A1970FB6F894DEBF0FBECDBF90
S11314C07C01FA01CB0119A2223008F42AE08E0132
S11314D00F5D1F4F822E912CA12CB12CBF01A501B1
S11314E094010E94C80DF901CA01015011096A3022
S11314F010F4605D01C0695CD8016C93232B242B2C
S1131500252B61F7B801C7010E941A0AA1960FB6EC
S1131510F894DEBF0FBECDBFDF91CF911F910F9125
S1131520FF90EF90BF90AF909F908F9008952115FA
S1131530310541F4DC01ED91FC910190F081E02D45
S1131540642F09940C944E0A9A01462F50E060E0EF
S113155070E00C94970A9A01AB0160E070E00C947F
S1131560970ACF92DF92EF92FF920F931F93CF933C
S1131570DF932115310581F4DC01ED91FC9101909B
S1131580F081E02D642FDF91CF911F910F91FF9097
S1131590EF90DF90CF9009942A30310501F577FF61
S11315A01DC06A017B01EC016DE20E94310A8C01CD
S11315B044275527BA014C195D096E097F092AE0B1
S11315C0CE010E944E0A800F911FDF91CF911F918F
S11315D00F91FF90EF90DF90CF9008952AE0DF9174
S11315E0CF911F910F91FF90EF90DF90CF900C94CB
S11315F04E0A9A01AB01770F660B770B0C94B10A74
S11316007F928F929F92AF92BF92CF92DF92EF928E
S1131610FF920F931F93CF93DF938C016A017B0199
S1131620722E9A01AB01C701B6010E94B70D88233F
S113163019F06AE472E027C046015701E894B7F84C
S11316402FEF3FEF4FE75FE7C501B4010E94B70DED
S113165081110DC02FEF3FEF4FE75FE7C501B401E4
S11316600E944D0618161CF46EE472E00CC02FEFB5
S11316703FEF4FE75FE4C701B6010E94A5071816C4
S113168094F462E572E0C801DF91CF911F910F914C
S1131690FF90EF90DF90CF90BF90AF909F908F908E
S11316A07F900C941A0A2FEF3FEF4FE75FECC701CE
S11316B0B6010E944D0687FDE4CF20E030E0A90189
S11316C0C701B6010E944D0687FF0AC06DE2C8013A
S11316D00E94310AEC01F7FAF094F7F8F09402C092
S11316E0C0E0D0E0B12C60E070E080E09FE37B14C8
S11316F041F020E030E040E251E40E945206B3940D
S1131700F6CFA70196010E94E1056B017C010E94BE
S1131710C4064B015C012AE0AB01BC01C8010E9474
S11317204E0AC80FD91F7720B9F1C501B4010E9430
S1131730F3069B01AC01C701B6010E94E0056B01F1
S11317407C016EE2C8010E94310AC80FD91F20E053
S113175030E040E251E4C701B6010E94AA074B0100
S11317605C010E94C4066B017C014AE050E0C801A0
S11317700E94AB0AC80FD91FB60180E090E00E9416
S1131780F3069B01AC01C501B4010E94E0056B01A5
S11317907C017A947110DBCFCE01DF91CF911F9140
S11317A00F91FF90EF90DF90CF90BF90AF909F90FC
S11317B08F907F9008950C94000B1F920F920FB698
S11317C00F9211242F933F938F939F93AF93BF93C3
S11317D08091700390917103A0917203B09173038F
S11317E030916F0323E0230F2D3720F40196A11DC0
S11317F0B11D05C026E8230F0296A11DB11D20933B
S11318006F038093700390937103A0937203B0935A
S113181073038091740390917503A0917603B09142
S113182077030196A11DB11D8093740390937503F2
S1131830A0937603B0937703BF91AF919F918F915B
S11318403F912F910F900FBE0F901F9018952FB7B7
S1131850F894609170037091710380917203909178
S113186073032FBF0895789484B5826084BD84B5D2
S1131870816084BD85B5826085BD85B5816085BD87
S1131880EEE6F0E0808181608083E1E8F0E01082A0
S1131890808182608083808181608083E0E8F0E0E1
S11318A0808181608083E1EBF0E0808184608083CB
S11318B0E0EBF0E0808181608083EAE7F0E0808102
S11318C08460808380818260808380818160808362
S11318D08081806880831092C10008958E3008F062
S11318E08E502091000190E4299F9001112487706B
S11318F0822B80937C0080917A00806480937A00AC
S113190080917A0086FDFCCF809178002091790047
S113191090E0922B08951F93CF93DF93182FEB0140
S113192061E00E94130D209711F460E004C0CF3FE2
S1131930D10539F461E0812FDF91CF911F910C948F
S11319404F0DE12FF0E0E458FF4FE491E330F9F05C
S113195048F4E130B9F0E230A1F584B5806284BD89
S1131960C8BD34C0E730E9F0E83019F1E43049F596
S113197080918000806280938000D0938B00C0931C
S11319808A0024C084B5806884BDC7BD1FC080910F
S11319908000806880938000D0938900C093880081
S11319A015C08091B00080688093B000C093B300EC
S11319B00DC08091B00080628093B000C093B400E9
S11319C005C0C038D1050CF0B5CFAFCFDF91CF91B2
S11319D01F910895833081F028F4813099F082308A
S11319E0A1F008958730A9F08830B9F08430D1F49B
S11319F0809180008F7D03C0809180008F778093D9
S1131A008000089584B58F7702C084B58F7D84BD2E
S1131A1008958091B0008F7703C08091B0008F7DCE
S1131A208093B0000895CF93DF9390E0FC01E057DA
S1131A30FF4F2491FC01EC55FF4F8491882361F101
S1131A4090E0880F991FFC01E453FF4FC591D49196
S1131A50FC01EE53FF4FA591B491611109C09FB7EA
S1131A60F8948881209582238883EC912E230BC0DF
S1131A70623061F49FB7F8948881322F30958323C4
S1131A808883EC912E2B2C939FBF06C08FB7F894BC
S1131A90E8812E2B28838FBFDF91CF9108951F9368
S1131AA0CF93DF93282F30E0F901E458FF4F84915E
S1131AB0F901E057FF4FD491F901EC55FF4FC49160
S1131AC0CC23C1F0162F81110E94EA0CEC2FF0E018
S1131AD0EE0FFF1FEE53FF4FA591B4919FB7F894FB
S1131AE0111104C08C91D095D82302C0EC91DE2B47
S1131AF0DC939FBFDF91CF911F910895BF92CF9246
S1131B00DF92EF92FF920F931F93CF93DF93C82E30
S1131B10D62EB42EC7E0D0E0022F10E087E0E82EE6
S1131B20F12CB11005C0C7018C1B9D0BB80102C07C
S1131B30B8018C2F02C0759567958A95E2F761709C
S1131B408C2D0E944F0D60E08D2D0E944F0D61E0A1
S1131B508D2D0E944F0D219720F7DF91CF911F917A
S1131B600F91FF90EF90DF90CF90BF9008950E9467
S1131B703007880B990B0895991B79E004C0991FCD
S1131B80961708F0961B881F7A95C9F780950895D3
S1131B90A1E21A2EAA1BBB1BFD010DC0AA1FBB1F6D
S1131BA0EE1FFF1FA217B307E407F50720F0A21BDF
S1131BB0B30BE40BF50B661F771F881F991F1A944C
S1131BC069F760957095809590959B01AC01BD0176
S1131BD0CF010895EE0FFF1F0590F491E02D0994B5
S1071BE0F894FFCFA3
S1131BE4012D2D2D2D2D2D2D2D2D2D2D2D2D2D2D49
S1131BF42D2D2D2D2D2D2D2D2D2D2D2D2D2D2D2D0D
S1131C042D2D2D0054656D707320C3A9636F756CFD
S1131C14C3A920646570756973206C652064C3A9C5
S1131C246D617272616765203A200073002C0A00AA
S1131C34566974657373652061637475656C6C654A
S1131C44203A20004E697665617578204261747487
S1131C546572696573203A004C612042617474654D
S1131C64726965200020612061747465696E742052
S1131C74756E206E69766561752063726974697125
S1131C84756521200A532761727265746572206434
S1131C9427757267656E636521210A0020612061DE
S1131CA4747465696E742073612063686172676516
S1131CB4206D6178200A566575696C6C657A2073A9
S1131CC4746F70706572206C6120636861726765FB
S1131CD40A002065737420C3A02000250A004574FB
S1131CE46174204261726772617068203A20000056
S1131CF400000200038003C003E003F003F803FCC4
S1131D0403FE03FF033F065B4F666D7D077F6F771A
S1131D147C395E7971000000008308F0094508CA23
S1131D24081708310823080D0A006E616E00696EF5
S1091D3466006F766600F4
S9030000FC
