S00C00004B6172742E7372656386
S11300000C9462000C9462010C9489010C94B0016C
S11300100C9413020C9476020C948A000C948A00BB
S11300200C948A000C948A000C948A000C948A0024
S11300300C948A000C948A000C948A000C948A0014
S11300400C946B060C948A000C94A2050C94D405B1
S11300500C948A000C948A000C948A000C948A00F4
S11300600C948A000C948A0000010203040506071C
S1130070000102030405000102030405010204084F
S113008010204080010204081020010204081020FE
S1130090040404040404040402020202020203032A
S11300A003030303000000002300260029000000CE
S11300B00000250028002B00000000002400270079
S11300C02A00040611241FBECFEFD8E0DEBFCDBF47
S11300D011E0A0E0B1E0E4ECFEE002C005900D9276
S11300E0A231B107D9F721E0A2E1B1E001C01D922C
S11300F0A73FB207E1F710E0C2E6D0E004C02197C1
S1130100FE010E945A07C136D107C9F70E94320680
S11301100C9460070C940000809119018F5F809308
S113012019010895E82FEF7787FD05C08EEF8E0F34
S1130130823008F49AC08E2F90E0FC01E458FF4FFF
S11301402491FC01E057FF4F3491542F5D7F5130CF
S1130150B9F4323031F450912201522B50932201E0
S11301600FC0333031F450911F01522B50931F01B3
S113017007C0343029F450911C01522B50931C01B8
S113018041504230B8F4323031F440912101422BD5
S1130190409321010FC0333031F440911E01422BB2
S11301A040931E0107C0343029F440911B01422BB7
S11301B040931B01FC01E859FF4FA4913230C1F474
S11301C0B0E0AA0FBB1FA15CBE4F6D937C93E8EA1D
S11301D0F0E0A591B4918C91809320018BE690E09E
S11301E09093500180934F0180916800816033C0E7
S11301F03330C1F4B0E0AA0FBB1FAD5CBE4F6D93AA
S11302007C93EAEAF0E0A591B4918C9180931D016E
S11302108CE690E09093500180934F0180916800A8
S1130220826019C03430C9F4B0E0AA0FBB1FAD5DC1
S1130230BE4F6D937C93ECEAF0E0A591B4918C9160
S113024080931A018DE690E09093500180934F01C2
S113025080916800846080936800A0914F01B09100
S11302605001EC912E2B2C9308959FB7F894E23013
S113027099F470934C0160934B01E8988091690064
S11302808C7F8093690080916900482B40936900BA
S1130290E09AE89A9FBF089570934E0160934D01D0
S11302A0E99880916900837F809369008091690057
S11302B024E0429FA0011124482B40936900E19A55
S11302C0E99AE8CF1F920F920FB60F9211242F9341
S11302D03F934F935F936F937F938F939F93AF93CA
S11302E0BF93EF93FF93E0914B01F0914C0109957B
S11302F0FF91EF91BF91AF919F918F917F916F91FA
S11303005F914F913F912F910F900FBE0F901F90CF
S113031018951F920F920FB60F9211242F933F93AB
S11303204F935F936F937F938F939F93AF93BF93F9
S1130330EF93FF93E0914D01F0914E010995FF91E8
S1130340EF91BF91AF919F918F917F916F915F9149
S11303504F913F912F910F900FBE0F901F901895C2
S11303601F920F920FB60F9211242F933F934F9326
S11303705F936F937F938F939F93AF93BF93CF9329
S1130380EF93FF9323B1C0912001809122019091BA
S11303902101322F309593238223892B90916B0076
S11303A0C227C923C82320932001CC2351F1C0FFC5
S11303B005C0E0913F01F09140010995C1FF05C0DE
S11303C0E0914101F09142010995C2FF05C0E0911D
S11303D04301F09144010995C3FF05C0E091450133
S11303E0F09146010995C4FF05C0E0914701F091E1
S11303F048010995C5FF05C0E0914901F0914A0102
S11304000995FF91EF91CF91BF91AF919F918F91FA
S11304107F916F915F914F913F912F910F900FBEFC
S11304200F901F9018951F920F920FB60F921124E0
S11304302F933F934F935F936F937F938F939F93E8
S1130440AF93BF93CF93EF93FF9326B1C0911D0158
S113045080911F0190911E01322F309593238223A6
S1130460892B90916C00C227C923C82320931D01B6
S1130470CC2351F1C0FF05C0E0913301F091340168
S11304800995C1FF05C0E0913501F0913601099548
S1130490C2FF05C0E0913701F09138010995C3FF0F
S11304A005C0E0913901F0913A010995C4FF05C0F6
S11304B0E0913B01F0913C010995C5FF05C0E09135
S11304C03D01F0913E010995FF91EF91CF91BF91CC
S11304D0AF919F918F917F916F915F914F913F91D8
S11304E02F910F900FBE0F901F9018951F920F928F
S11304F00FB60F9211242F933F934F935F936F93F3
S11305007F938F939F93AF93BF93CF93EF93FF9377
S113051029B1C0911A0180911C0190911B01322FC5
S1130520309593238223892B90916D00C227C92390
S1130530C82320931A01CC23C1F1C0FF05C0E09168
S11305402301F09124010995C1FF05C0E091250123
S1130550F09126010995C2FF05C0E0912701F091B1
S113056028010995C3FF05C0E0912901F0912A01F2
S11305700995C4FF05C0E0912B01F0912C01099568
S1130580C5FF05C0E0912D01F0912E010995C6FF2C
S113059005C0E0912F01F09130010995C7FF05C016
S11305A0E0913101F09132010995FF91EF91CF91E2
S11305B0BF91AF919F918F917F916F915F914F9177
S11305C03F912F910F900FBE0F901F90189526E02A
S11305D040E855E260E070E081E591E00E943D056D
S11305E060E084E00E94FC0643E06CE870E084E094
S11305F00C9492000F931F93CF930E94B506009121
S11306001201109113012091140130911501DC01A4
S1130610CB01801B910BA20BB30B893E9340A10528
S1130620B10540F1C09119010E94B5066093120111
S11306307093130180931401909315018091170115
S11306406C2F681B6093160170E080E090E00E94BC
S11306506D0326E636E646EE5FE30E94D30320E010
S113066030E0A9010E94D3030E943E036093180165
S1130670C0931701CF911F910F9108950E94B20367
S113068088F09F5798F0B92F9927B751B0F0E1F04F
S1130690660F771F881F991F1AF0BA95C9F714C0FF
S11306A0B13091F00E94CC03B1E008950C94CC03D6
S11306B0672F782F8827B85F39F0B93FCCF3869538
S11306C077956795B395D9F73EF490958095709595
S11306D061957F4F8F4F9F4F0895E89409C097FB12
S11306E03EF490958095709561957F4F8F4F9F4F05
S11306F09923A9F0F92F96E9BB279395F695879549
S113070077956795B795F111F8CFFAF4BB0F11F40B
S113071060FF1BC06F5F7F4F8F4F9F4F16C08823B2
S113072011F096E911C0772321F09EE8872F762FE8
S113073005C0662371F096E8862F70E060E02AF029
S11307409A95660F771F881FDAF7880F9695879515
S113075097F9089557FD9058440F551F59F05F3F7E
S113076071F04795880F97FB991F61F09F3F79F0CF
S113077087950895121613061406551FF2CF469551
S1130780F1DF08C0161617061806991FF1CF8695D3
S11307907105610508940895E894BB2766277727B7
S11307A0CB0197F908950E94E6030C9457040E9424
S11307B0490438F00E94500420F0952311F00C9461
S11307C040040C94460411240C94CD030E94AA0303
S11307D070F3959FC1F3950F50E0551F629FF00190
S11307E0729FBB27F00DB11D639FAA27F00DB11DA9
S11307F0AA1F649F6627B00DA11D661F829F222732
S1130800B00DA11D621F739FB00DA11D621F839FB8
S1130810A00D611D221F749F3327A00D611D231F8E
S1130820849F600D211D822F762F6A2F11249F57DC
S113083050409AF0F1F088234AF0EE0FFF1FBB1FDF
S1130840661F771F881F91505040A9F79E3F51059E
S113085080F00C9440040C94CD035F3FE4F3983E85
S1130860D4F3869577956795B795F795E7959F5F48
S1130870C1F7FE2B880F911D9695879597F90895DA
S113088097F99F6780E870E060E008959FEF80EC3F
S1130890089500240A9416161706180609060895E2
S11308A000240A9412161306140605060895092E48
S11308B00394000C11F4882352F0BB0F40F4BF2BB7
S11308C011F460FF04C06F5F7F4F8F4F9F4F0895F7
S11308D0FC01918D228D892F90E0805C9F4F821BBB
S11308E091098F7399270895FC01918D828D981732
S11308F031F0828DE80FF11D858D90E008958FEF22
S11309009FEF0895FC01918D828D981761F0828D7F
S1130910DF01A80FB11D5D968C91928D9F5F9F732F
S1130920928F90E008958FEF9FEF0895FC01538D0F
S1130930448D252F30E0842F90E0821B930B5417B5
S113094010F0CF960895019708958AEF95E0892BCA
S113095049F080E090E0892B29F00E94FA0581118A
S11309600C9400000895FC01848DDF01A80FB11DD3
S1130970A35ABF4F2C91848D90E001968F739927D1
S1130980848FA689B7892C93A089B1898C918064BE
S11309908C93938D848D981306C00288F389E02D7F
S11309A080818F7D80830895EF92FF920F931F9330
S11309B0CF93DF93EC0181E0888F9B8D8C8D98130E
S11309C005C0E889F989808185FD24C0F62E0B8D48
S11309D010E00F5F1F4F0F731127E02E8C8DE8126C
S11309E00CC00FB607FCFACFE889F989808185FF2E
S11309F0F5CFCE010E94B304F1CF8B8DFE01E80F39
S1130A00F11DE35AFF4FF0820B8FEA89FB89808145
S1130A10806207C0EE89FF896083E889F989808153
S1130A208064808381E090E0DF91CF911F910F91EA
S1130A30FF90EF900895CF93DF93EC01888D882386
S1130A40C9F0EA89FB89808185FD05C0A889B98937
S1130A508C9186FD0FC00FB607FCF5CF808185FF12
S1130A60F2CFA889B9898C9185FFEDCFCE010E9480
S1130A70B304E7CFDF91CF910895CF92DF92EF9245
S1130A80FF921F93CF93DF93EC016A017B01122F36
S1130A90E889F98982E080834115514E6105710529
S1130AA0B1F060E079E08DE390E0A70196010E9447
S1130AB03807DA01C9010197A109B109B695A795CB
S1130AC0979587959C01211580E13807A8F0E8895E
S1130AD0F989108260E874E88EE190E0A70196013C
S1130AE00E943807DA01C9010197A109B109B69535
S1130AF0A795979587959C01EC85FD853083EE85B8
S1130B00FF852083188EEC89FD891083EA89FB898F
S1130B10808180618083EA89FB8980818860808309
S1130B20EA89FB89808180688083EA89FB898081E6
S1130B308F7D8083DF91CF911F91FF90EF90DF90A5
S1130B40CF9008951F920F920FB60F9211242F93F6
S1130B508F939F93EF93FF93E0916101F091620172
S1130B608081E0916701F091680182FD12C090815B
S1130B7080916A018F5F8F7320916B01821751F00E
S1130B80E0916A01F0E0EF5AFE4F958F80936A017D
S1130B9001C08081FF91EF919F918F912F910F90D0
S1130BA00FBE0F901F9018951F920F920FB60F92C1
S1130BB011242F933F934F935F936F937F938F935E
S1130BC09F93AF93BF93EF93FF9381E591E00E94CE
S1130BD0B304FF91EF91BF91AF919F918F917F915A
S1130BE06F915F914F913F912F910F900FBE0F9096
S1130BF01F90189581E591E00E94680421E0892BFB
S1130C0009F420E0822F0895E1E5F1E013821282D5
S1130C1088EE93E0A0E0B0E084839583A683B78355
S1130C2084E091E09183808385EC90E095878487CC
S1130C3084EC90E09787868780EC90E0918B808BA2
S1130C4081EC90E0938B828B82EC90E0958B848B8B
S1130C5086EC90E0978B868B118E128E138E148EF9
S1130C60089508950E94C1060E9431060E94E70279
S1130C70C5EAD4E00E94FA022097E1F30E94A50499
S1130C80F9CFCF92DF92EF92FF920F931F93CF93FE
S1130C90DF936C017A018B01C0E0D0E0CE15DF0553
S1130CA081F0D8016D918D01D601ED91FC910190F7
S1130CB0F081E02DC6010995892B11F02196EECF24
S1130CC07E01C701DF91CF911F910F91FF90EF90AB
S1130CD0DF90CF9008951F920F920FB60F921124B8
S1130CE02F933F938F939F93AF93BF938091EF0183
S1130CF09091F001A091F101B091F2013091EE01D7
S1130D0023E0230F2D3720F40196A11DB11D05C04A
S1130D1026E8230F0296A11DB11D2093EE018093B6
S1130D20EF019093F001A093F101B093F20180914F
S1130D30F3019091F401A091F501B091F6010196AF
S1130D40A11DB11D8093F3019093F401A093F501CB
S1130D50B093F601BF91AF919F918F913F912F91E5
S1130D600F900FBE0F901F9018952FB7F8946091B5
S1130D70EF017091F0018091F1019091F2012FBF88
S1130D800895789484B5826084BD84B5816084BDFF
S1130D9085B5826085BD85B5816085BDEEE6F0E0F0
S1130DA0808181608083E1E8F0E01082808182604C
S1130DB08083808181608083E0E8F0E080818160CD
S1130DC08083E1EBF0E0808184608083E0EBF0E0FD
S1130DD0808181608083EAE7F0E0808184608083A1
S1130DE0808182608083808181608083808180684B
S1130DF080831092C1000895CF93DF9390E0FC01AB
S1130E00E458FF4F2491FC01E057FF4F849188235D
S1130E1061F190E0880F991FFC01E854FF4FC591E0
S1130E20D491FC01E255FF4FA591B491611109C021
S1130E309FB7F8948881209582238883EC912E2390
S1130E400BC0623061F49FB7F8948881322F3095DB
S1130E5083238883EC912E2B2C939FBF06C08FB7DE
S1130E60F894E8812E2B28838FBFDF91CF910895CA
S1130E70A1E21A2EAA1BBB1BFD010DC0AA1FBB1F9A
S1130E80EE1FFF1FA217B307E407F50720F0A21B0C
S1130E90B30BE40BF50B661F771F881F991F1A9479
S1130EA069F760957095809590959B01AC01BD01A3
S1130EB0CF010895EE0FFF1F0590F491E02D0994E2
S1070EC0F894FFCFD0
S1130EC400000000D404410696041B05680482044F
S1050ED47404A0
S9030000FC
