:100000000C9462000C9462010C9489010C94B00170
:100010000C9413020C9476020C948A000C948A00BF
:100020000C948A000C948A000C948A000C948A0028
:100030000C948A000C948A000C948A000C948A0018
:100040000C94C3090C948A000C9476070C94A807AE
:100050000C948A000C948A000C948A000C948A00F8
:100060000C948A000C948A00000102030405060720
:100070000001020304050001020304050102040853
:100080001020408001020408102001020408102002
:10009000040404040404040402020202020203032E
:1000A00003030303000000002300260029000000D2
:1000B0000000250028002B0000000000240027007D
:1000C0002A00D80711241FBECFEFD8E0DEBFCDBF76
:1000D00011E0A0E0B1E0E8EBF5E102C005900D927F
:1000E000AA3CB107D9F722E0AAECB1E001C01D9209
:1000F000A33BB207E1F710E0C2E6D0E004C02197CD
:10010000FE010E94D40AC136D107C9F70E94060831
:100110000C94DA0A0C9400008091D5018F5F8093D3
:10012000D5010895E82FEF7787FD05C08EEF8E0F7C
:10013000823008F49AC08E2F90E0FC01E458FF4F03
:100140002491FC01E057FF4F3491542F5D7F5130D3
:10015000B9F4323031F45091DE01522B5093DE016C
:100160000FC0333031F45091DB01522B5093DB013F
:1001700007C0343029F45091D801522B5093D80144
:1001800041504230B8F4323031F44091DD01422B1D
:100190004093DD010FC0333031F44091DA01422B3E
:1001A0004093DA0107C0343029F44091D701422B43
:1001B0004093D701FC01E859FF4FA4913230C1F4BC
:1001C000B0E0AA0FBB1FA550BE4F6D937C93E8EA29
:1001D000F0E0A591B4918C918093DC018BE690E0E6
:1001E00090930C0280930B0280916800816033C071
:1001F0003330C1F4B0E0AA0FBB1FA151BE4F6D93C5
:100200007C93EAEAF0E0A591B4918C918093D901B6
:100210008CE690E090930C0280930B028091680032
:10022000826019C03430C9F4B0E0AA0FBB1FA152DC
:10023000BE4F6D937C93ECEAF0E0A591B4918C9164
:100240008093D6018DE690E090930C0280930B0290
:1002500080916800846080936800A0910B02B09147
:100260000C02EC912E2B2C9308959FB7F894E2305A
:1002700099F47093080260930702E89880916900EE
:100280008C7F8093690080916900482B40936900BE
:10029000E09AE89A9FBF089570930A02609309025A
:1002A000E99880916900837F80936900809169005B
:1002B00024E0429FA0011124482B40936900E19A59
:1002C000E99AE8CF1F920F920FB60F9211242F9345
:1002D0003F934F935F936F937F938F939F93AF93CE
:1002E000BF93EF93FF93E0910702F0910802099505
:1002F000FF91EF91BF91AF919F918F917F916F91FE
:100300005F914F913F912F910F900FBE0F901F90D3
:1003100018951F920F920FB60F9211242F933F93AF
:100320004F935F936F937F938F939F93AF93BF93FD
:10033000EF93FF93E0910902F0910A020995FF9172
:10034000EF91BF91AF919F918F917F916F915F914D
:100350004F913F912F910F900FBE0F901F901895C6
:100360001F920F920FB60F9211242F933F934F932A
:100370005F936F937F938F939F93AF93BF93CF932D
:10038000EF93FF9323B1C091DC018091DE01909146
:10039000DD01322F309593238223892B90916B00BE
:1003A000C227C923C8232093DC01CC2351F1C0FF0D
:1003B00005C0E091FB01F091FC010995C1FF05C06A
:1003C000E091FD01F091FE010995C2FF05C0E091A9
:1003D000FF01F09100020995C3FF05C0E091010201
:1003E000F09102020995C4FF05C0E0910302F0916B
:1003F00004020995C5FF05C0E0910502F0910602CF
:100400000995FF91EF91CF91BF91AF919F918F91FE
:100410007F916F915F914F913F912F910F900FBE00
:100420000F901F9018951F920F920FB60F921124E4
:100430002F933F934F935F936F937F938F939F93EC
:10044000AF93BF93CF93EF93FF9326B1C091D901A0
:100450008091DB019091DA01322F30959323822332
:10046000892B90916C00C227C923C8232093D901FE
:10047000CC2351F1C0FF05C0E091EF01F091F001F4
:100480000995C1FF05C0E091F101F091F2010995D4
:10049000C2FF05C0E091F301F091F4010995C3FF9B
:1004A00005C0E091F501F091F6010995C4FF05C082
:1004B000E091F701F091F8010995C5FF05C0E091C1
:1004C000F901F091FA010995FF91EF91CF91BF9158
:1004D000AF919F918F917F916F915F914F913F91DC
:1004E0002F910F900FBE0F901F9018951F920F9293
:1004F0000FB60F9211242F933F934F935F936F93F7
:100500007F938F939F93AF93BF93CF93EF93FF937B
:1005100029B1C091D6018091D8019091D701322F95
:10052000309593238223892B90916D00C227C92394
:10053000C8232093D601CC23C1F1C0FF05C0E091B0
:10054000DF01F091E0010995C1FF05C0E091E101F3
:10055000F091E2010995C2FF05C0E091E301F0913D
:10056000E4010995C3FF05C0E091E501F091E601C2
:100570000995C4FF05C0E091E701F091E8010995F4
:10058000C5FF05C0E091E901F091EA010995C6FFB8
:1005900005C0E091EB01F091EC010995C7FF05C0A2
:1005A000E091ED01F091EE010995FF91EF91CF916E
:1005B000BF91AF919F918F917F916F915F914F917B
:1005C0003F912F910F900FBE0F901F90189526E02E
:1005D00040E855E260E070E08DE092E00E94110793
:1005E00062E084E00E94710A43E06CE870E084E01D
:1005F0000C949200CF93C091D5014091CE015091BF
:10060000CF016091D0017091D1014F5F5F4F6F4F6B
:100610007F4F4093CE015093CF016093D0017093F0
:10062000D1012AE030E08DE092E00E94BC0861E058
:1006300071E08DE092E00E9454088091D3016C2F0C
:10064000681B6093D20170E080E090E00E94180582
:1006500026E636E646EE5FE30E94CF052DE232EB5A
:100660004DE55FE30E94CF050E94E9046093D40149
:100670004AE050E08DE092E00E94C90861E071E03C
:100680008DE092E00E946108C093D301CF9108955C
:10069000CF92DF92EF92FF928FE00E94540ABC014A
:1006A000990F880B990B0E941A056B017C0120E0C1
:1006B00030E040EA50E40E94720487FF1CC064E00E
:1006C00071E08DE092E00E94610860E070E0CB0193
:1006D0009B01AC01C701B6010E94CA0518160CF0B7
:1006E00046C062E471E08DE092E0FF90EF90DF9011
:1006F000CF900C94610860E070E0CB019B01AC01ED
:10070000C701B6010E94CA0518165CF36AE871E0D9
:100710008DE092E00E94540820E030E040EA50E48E
:10072000C701B6010E9405046B017C0120E030E0A6
:1007300040EA50E460E070E0CB010E9405049B01B8
:10074000AC01C701B6010E94770420E030E048EC1C
:1007500052E40E94CF05AB01BC0122E030E08DE005
:1007600092E0FF90EF90DF90CF900C94B109FF9052
:10077000EF90DF90CF9008950F931F930E940D0A82
:100780000091CA011091CB012091CC013091CD0193
:10079000DC01CB01801B910BA20BB30B893E934074
:1007A000A105B10560F00E940D0A6093CA01709323
:1007B000CB018093CC019093CD010E94FA020E945C
:1007C0000D0A0091CA011091CB012091CC0130910A
:1007D000CD01DC01CB01801B910BA20BB30B853F3C
:1007E0009140A105B10570F00E940D0A6093CA0105
:1007F0007093CB018093CC019093CD011F910F9109
:100800000C9448031F910F9108955058BB27AA27B5
:100810000E941D040C9490050E94820538F00E94ED
:10082000890520F039F49F3F19F426F40C947F05D4
:100830000EF4E095E7FB0C947905E92F0E94A105E1
:1008400058F3BA17620773078407950720F079F405
:10085000A6F50C94C3050EF4E0950B2EBA2FA02D2F
:100860000B01B90190010C01CA01A0011124FF275D
:10087000591B99F0593F50F4503E68F11A16F04058
:10088000A22F232F342F4427585FF3CF4695379557
:100890002795A795F0405395C9F77EF41F16BA0B1C
:1008A000620B730B840BBAF09150A1F0FF0FBB1FCA
:1008B000661F771F881FC2F70EC0BA0F621F731F13
:1008C000841F48F4879577956795B795F7959E3F70
:1008D00008F0B0CF9395880F08F09927EE0F979501
:1008E000879508950E94550508F481E008950E94B7
:1008F0008B040C9490050E94890558F00E94820593
:1009000040F029F45F3F29F00C94790551110C94C3
:10091000C4050C947F050E94A10568F39923B1F3E7
:10092000552391F3951B550BBB27AA276217730715
:10093000840738F09F5F5F4F220F331F441FAA1FA9
:10094000A9F335D00E2E3AF0E0E832D09150504065
:10095000E695001CCAF72BD0FE2F29D0660F771F13
:10096000881FBB1F261737074807AB07B0E809F0F9
:10097000BB0B802DBF01FF2793585F4F3AF09E3F7E
:10098000510578F00C9479050C94C4055F3FE4F3AD
:10099000983ED4F3869577956795B795F7959F5FC1
:1009A000C9F7880F911D9695879597F90895E1E00D
:1009B000660F771F881FBB1F621773078407BA076C
:1009C00020F0621B730B840BBA0BEE1F88F7E095C7
:1009D00008950E94A90588F09F5798F0B92F99278C
:1009E000B751B0F0E1F0660F771F881F991F1AF01A
:1009F000BA95C9F714C0B13091F00E94C305B1E0B7
:100A000008950C94C305672F782F8827B85F39F0B5
:100A1000B93FCCF3869577956795B395D9F73EF4B2
:100A200090958095709561957F4F8F4F9F4F08955A
:100A3000E89409C097FB3EF4909580957095619578
:100A40007F4F8F4F9F4F9923A9F0F92F96E9BB272E
:100A50009395F695879577956795B795F111F8CFAA
:100A6000FAF4BB0F11F460FF1BC06F5F7F4F8F4F15
:100A70009F4F16C0882311F096E911C0772321F00B
:100A80009EE8872F762F05C0662371F096E8862FA3
:100A900070E060E02AF09A95660F771F881FDAF7FA
:100AA000880F9695879597F90895990F0008550F27
:100AB000AA0BE0E8FEEF16161706E807F907C0F0E4
:100AC00012161306E407F50798F0621B730B840BEC
:100AD000950B39F40A2661F0232B242B252B21F4C6
:100AE00008950A2609F4A140A6958FEF811D811D66
:100AF000089597F99F6780E870E060E008959FEFA0
:100B000080EC089500240A941616170618060906A4
:100B1000089500240A941216130614060506089573
:100B2000092E0394000C11F4882352F0BB0F40F4FB
:100B3000BF2B11F460FF04C06F5F7F4F8F4F9F4F3B
:100B4000089557FD9058440F551F59F05F3F71F0BD
:100B50004795880F97FB991F61F09F3F79F0879524
:100B60000895121613061406551FF2CF4695F1DFAD
:100B700008C0161617061806991FF1CF869571053D
:100B8000610508940895E894BB2766277727CB0171
:100B900097F908950E94550508F48FEF08950E9473
:100BA000E2050C9490050E94820538F00E948905A8
:100BB00020F0952311F00C9479050C947F051124F5
:100BC0000C94C4050E94A10570F3959FC1F3950F85
:100BD00050E0551F629FF001729FBB27F00DB11DC1
:100BE000639FAA27F00DB11DAA1F649F6627B00D51
:100BF000A11D661F829F2227B00DA11D621F739F3A
:100C0000B00DA11D621F839FA00D611D221F749F47
:100C10003327A00D611D231F849F600D211D822F8E
:100C2000762F6A2F11249F5750409AF0F1F08823B5
:100C30004AF0EE0FFF1FBB1F661F771F881F9150E2
:100C40005040A9F79E3F510580F00C9479050C9413
:100C5000C4055F3FE4F3983ED4F386957795679596
:100C6000B795F795E7959F5FC1F7FE2B880F911D0C
:100C70009695879597F90895FC01918D228D892F7E
:100C800090E0805C9F4F821B91098F739927089594
:100C9000FC01918D828D981731F0828DE80FF11D46
:100CA000858D90E008958FEF9FEF0895FC01918D61
:100CB000828D981761F0828DDF01A80FB11D5D96BE
:100CC0008C91928D9F5F9F73928F90E008958FEF2C
:100CD0009FEF0895FC01538D448D252F30E0842F24
:100CE00090E0821B930B541710F0CF960895019754
:100CF00008958EEC97E0892B49F080E090E0892BF5
:100D000029F00E94CE0781110C9400000895FC0187
:100D1000848DDF01A80FB11DA35ABF4F2C91848D84
:100D200090E001968F739927848FA689B7892C93B9
:100D3000A089B1898C9180648C93938D848D981354
:100D400006C00288F389E02D80818F7D808308951D
:100D5000EF92FF920F931F93CF93DF93EC0181E00B
:100D6000888F9B8D8C8D981305C0E889F9898081C7
:100D700085FD24C0F62E0B8D10E00F5F1F4F0F7303
:100D80001127E02E8C8DE8120CC00FB607FCFACFAD
:100D9000E889F989808185FFF5CFCE010E94870619
:100DA000F1CF8B8DFE01E80FF11DE35AFF4FF0826A
:100DB0000B8FEA89FB898081806207C0EE89FF89F9
:100DC0006083E889F98980818064808381E090E094
:100DD000DF91CF911F910F91FF90EF900895CF93E6
:100DE000DF93EC01888D8823C9F0EA89FB89808133
:100DF00085FD05C0A889B9898C9186FD0FC00FB605
:100E000007FCF5CF808185FFF2CFA889B9898C9145
:100E100085FFEDCFCE010E948706E7CFDF91CF910E
:100E20000895CF92DF92EF92FF921F93CF93DF93BB
:100E3000EC016A017B01122FE889F98982E0808345
:100E40004115514E61057105B1F060E079E08DE327
:100E500090E0A70196010E94B20ADA01C901019748
:100E6000A109B109B695A795979587959C0121157C
:100E700080E13807A8F0E889F989108260E874E811
:100E80008EE190E0A70196010E94B20ADA01C90141
:100E90000197A109B109B695A795979587959C01EA
:100EA000EC85FD853083EE85FF852083188EEC89E7
:100EB000FD891083EA89FB89808180618083EA89CA
:100EC000FB89808188608083EA89FB8980818068D2
:100ED0008083EA89FB8980818F7D8083DF91CF9138
:100EE0001F91FF90EF90DF90CF9008951F920F9287
:100EF0000FB60F9211242F938F939F93EF93FF932D
:100F0000E0911D02F0911E028081E0912302F09198
:100F1000240282FD12C09081809126028F5F8F7320
:100F200020912702821751F0E0912602F0E0E35F62
:100F3000FD4F958F8093260201C08081FF91EF9134
:100F40009F918F912F910F900FBE0F901F9018952A
:100F50001F920F920FB60F9211242F933F934F932E
:100F60005F936F937F938F939F93AF93BF93EF9311
:100F7000FF938DE092E00E948706FF91EF91BF9171
:100F8000AF919F918F917F916F915F914F913F9121
:100F90002F910F900FBE0F901F9018958DE092E04B
:100FA0000E943C0621E0892B09F420E0822F08955D
:100FB000EDE0F2E01382128288EE93E0A0E0B0E070
:100FC00084839583A683B7838CEA91E091838083A1
:100FD00085EC90E09587848784EC90E097878687FE
:100FE00080EC90E0918B808B81EC90E0938B828BF6
:100FF00082EC90E0958B848B86EC90E0978B868BCF
:10100000118E128E138E148E089508950E94190A5F
:101010000E9405080E94E702C9E7D6E00E94BC03CF
:101020002097E1F30E947906F9CFCF92DF92EF92F9
:10103000FF920F931F93CF93DF936C017A018B0183
:10104000C0E0D0E0CE15DF0581F0D8016D918D01B3
:10105000D601ED91FC910190F081E02DC60109953A
:10106000892B11F02196EECF7E01C701DF91CF9140
:101070001F910F91FF90EF90DF90CF900895611531
:10108000710579F0FB0101900020E9F73197AF017C
:10109000461B570BDC01ED91FC910280F381E02DA2
:1010A000099480E090E008950C943F08DC01ED91F4
:1010B000FC910190F081E02D09946AEB71E00C94B1
:1010C0003F080F931F93CF93DF93EC010E943F08DB
:1010D0008C01CE010E945D08800F911FDF91CF919E
:1010E0001F910F9108958F929F92AF92BF92EF92AE
:1010F000FF920F931F93CF93DF93CDB7DEB7A197E6
:101100000FB6F894DEBF0FBECDBF7C01FA01CB0154
:1011100019A2223008F42AE08E010F5D1F4F822EA3
:10112000912CA12CB12CBF01A50194010E94B20AFF
:10113000F901CA01015011096A3010F4605D01C063
:10114000695CD8016C93232B242B252B61F7B80104
:10115000C7010E943F08A1960FB6F894DEBF0FBEEC
:10116000CDBFDF91CF911F910F91FF90EF90BF9076
:10117000AF909F908F9008952115310541F4DC01C7
:10118000ED91FC910190F081E02D642F09940C9475
:1011900073089A01462F50E060E070E00C94BC08A0
:1011A0009A01AB0160E070E00C94BC087F928F92D2
:1011B0009F92AF92BF92CF92DF92EF92FF920F93E6
:1011C0001F93CF93DF938C016A017B01722E9A01EA
:1011D000AB01C701B6010E94AD0A882319F06DEB7F
:1011E00071E027C046015701E894B7F82FEF3FEFB1
:1011F0004FE75FE7C501B4010E94AD0A81110DC040
:101200002FEF3FEF4FE75FE7C501B4010E94720483
:1012100018161CF461EC71E00CC02FEF3FEF4FE7A4
:101220005FE4C701B6010E94CA05181694F465EC84
:1012300071E0C801DF91CF911F910F91FF90EF9066
:10124000DF90CF90BF90AF909F908F907F900C9445
:101250003F082FEF3FEF4FE75FECC701B6010E9459
:10126000720487FDE4CF20E030E0A901C701B60198
:101270000E94720487FF0AC06DE2C8010E945608EE
:10128000EC01F7FAF094F7F8F09402C0C0E0D0E077
:10129000B12C60E070E080E09FE37B1441F020E03F
:1012A00030E040E251E40E947704B394F6CFA70106
:1012B00096010E9406046B017C010E94E9044B0127
:1012C0005C012AE0AB01BC01C8010E947308C80F91
:1012D000D91F7720B9F1C501B4010E9418059B01FF
:1012E000AC01C701B6010E9405046B017C016EE2EE
:1012F000C8010E945608C80FD91F20E030E040E224
:1013000051E4C701B6010E94CF054B015C010E9468
:10131000E9046B017C014AE050E0C8010E94D0085A
:10132000C80FD91FB60180E090E00E9418059B010C
:10133000AC01C501B4010E9405046B017C017A94E3
:101340007110DBCFCE01DF91CF911F910F91FF90F4
:10135000EF90DF90CF90BF90AF909F908F907F9055
:1013600008950F931F93CF93DF93EC010E94D6084B
:101370008C01CE010E945D08800F911FDF91CF91FB
:101380001F910F9108951F920F920FB60F92112483
:101390002F933F938F939F93AF93BF938091AB0213
:1013A0009091AC02A091AD02B091AE023091AA0230
:1013B00023E0230F2D3720F40196A11DB11D05C098
:1013C00026E8230F0296A11DB11D2093AA02809347
:1013D000AB029093AC02A093AD02B093AE028091A9
:1013E000AF029091B002A091B102B091B202019609
:1013F000A11DB11D8093AF029093B002A093B102E2
:10140000B093B202BF91AF919F918F913F912F9175
:101410000F900FBE0F901F9018952FB7F894609102
:10142000AB027091AC028091AD029091AE022FBFE1
:101430000895789484B5826084BD84B5816084BD4C
:1014400085B5826085BD85B5816085BDEEE6F0E03D
:10145000808181608083E1E8F0E010828081826099
:101460008083808181608083E0E8F0E0808181601A
:101470008083E1EBF0E0808184608083E0EBF0E04A
:10148000808181608083EAE7F0E0808184608083EE
:101490008081826080838081816080838081806898
:1014A00080831092C10008958E3008F08E502091F4
:1014B000000190E4299F900111248770822B809372
:1014C0007C0080917A00806480937A0080917A0019
:1014D00086FDFCCF809178002091790090E0922BDE
:1014E0000895CF93DF9390E0FC01E458FF4F2491DF
:1014F000FC01E057FF4F8491882361F190E0880F51
:10150000991FFC01E854FF4FC591D491FC01E255AD
:10151000FF4FA591B491611109C09FB7F8948881DC
:10152000209582238883EC912E230BC0623061F4D6
:101530009FB7F8948881322F309583238883EC916C
:101540002E2B2C939FBF06C08FB7F894E8812E2BCB
:1015500028838FBFDF91CF9108950E945505880B96
:10156000990B0895A1E21A2EAA1BBB1BFD010DC009
:10157000AA1FBB1FEE1FFF1FA217B307E407F50743
:1015800020F0A21BB30BE40BF50B661F771F881F1F
:10159000991F1A9469F760957095809590959B01B5
:1015A000AC01BD01CF010895EE0FFF1F0590F4912E
:0815B000E02D0994F894FFCF2F
:1015B800012C20006C612074656E73696F6E206168
:1015C800747465696E7420756E206E6976656175D0
:1015D80020637269746971756521200A53276172E5
:1015E8007265746572206427757267656E6365211C
:1015F80021006C612074656E73696F6E206174746C
:1016080065696E7420756E206E69766561752063F4
:101618007269746971756521200A44656272616E28
:1016280063686572206C6120707269736520642735
:10163800757267656E63652121006C65206E697639
:1016480065617520646520626174746572696520DE
:10165800657374206465200000000000A806150862
:101668006A06EF063C06560648060D0A006E616ECD
:0A16780000696E66006F76660000E0
:00000001FF
